:020000040800F2
:10000000685801209D010008A5010008A70100080B
:10001000A9010008AB010008AD01000800000000C4
:10002000000000000000000000000000AF01000818
:10003000B101000800000000B3010008E923000836
:10004000B7010008B7010008B7010008B7010008B0
:10005000B7010008B7010008B7010008B7010008A0
:10006000F5050008B7010008B7010008B70100084E
:10007000B7010008B70100082D040008B701000807
:10008000B7010008B7010008B7010008B701000870
:10009000B7010008B7010008B7010008B701000860
:1000A000B7010008B7010008B7010008B701000850
:1000B00051240008B7010008B7010008B701000883
:1000C000B7010008B7010008B7010008B701000830
:1000D000B7010008B7010008B7010008B701000820
:1000E000C9050008B701000819220008B701000877
:1000F000B7010008B7010008B7010008B701000800
:10010000B7010008B7010008B7010008E92200089C
:10011000B7010008B7010008B7010008B7010008DF
:10012000B7010008B701000891040008B7010008F2
:10013000B7010008B7010008B7010008B7010008BF
:10014000B7010008B7010008B70100080D22000838
:10015000B7010008B7010008B7010008B70100089F
:10016000B7010008B7010008B7010008B70100088F
:10017000B7010008B7010008B7010008000000003F
:10018000B7010008B7010008DFF80CD000F02AF82A
:1001900000480047353D0008685801200648804760
:1001A00006480047FEE7FEE7FEE7FEE7FEE7FEE75C
:1001B000FEE7FEE7FEE7FEE7F923000889010008F5
:1001C000D2B201E000F8012B491EFBD27047002299
:1001D000F6E710B513460A4604461946FFF7F0FF46
:1001E000204610BD064C074D06E0E06840F00103D4
:1001F00094E8070098471034AC42F6D3FFF7C8FFE5
:10020000583F0008783F000870B58C1810F8015B63
:1002100015F0070301D110F8013B2A1106D110F89F
:10022000012B03E010F8016B01F8016B5B1EF9D1A3
:100230002B0705D40023521E0DD401F8013BFAE729
:1002400010F8013BCB1A921C03E013F8015B01F894
:10025000015B521EF9D5A142D8D3002070BD002009
:100260007047002070470020704700000349024893
:10027000086000207047000090080020FC0000206B
:1002800000BF002070470020704700207047002802
:100290004FF01C0001D000F097BD00F089BD0000B8
:1002A00030B55D4C85B0A188206800F0A5FB2189A0
:1002B000206800F0A1FBE188206800F09DFB218A06
:1002C000E06800F099FB02200025CDE90250019082
:1002D000A07C0490A08800906946206800F0FEFB96
:1002E000E08800906946206800F0F8FB20890090C3
:1002F0006946206800F0F2FB208A009001200190FE
:100300006946E06800F0EAFBE068008B218A084358
:10031000E1680883414861690160856045610821A1
:100320000561C1610721C0E90A514FF4006105620E
:10033000C1608910456281614FF48271416001F0B2
:10034000AFFD94F918000022022100F049FD94F954
:10035000180000F02DFD60690068616940F0400000
:100360000860E1686069498B228A1143E268518321
:100370002B490988C160816811F0020FFBD08168A8
:1003800011F0010FFBD0816811F0800FFBD1E06804
:10039000008B218A0843E1680883E1686069498B22
:1003A000228A1143E26851831E490988C16081682D
:1003B00011F0020FFBD0816811F0010FFBD08168B2
:1003C00011F0800FFBD1E068008B218A0843E168BF
:1003D0000883154C1420020740F28F112260C4E9F3
:1003E0000315C4E901052046656101F0B7FD00224F
:1003F00001211C2000F0F4FC1C2000F0D9FC206836
:10040000C16841F00101C1602068016841F001014B
:10041000016005B030BD00002C3F0008800C0020BA
:100420002E01002030010020D40C002010B5154C06
:10043000606A416821F003014160816811F0800F1A
:10044000FBD1E068018B228A1143018302220E490D
:10045000204601F08FFF206B016841F01001016020
:10046000D4E90F010143A06A826811438160D4E995
:100470000F010143A06AC2681143C1600349002013
:10048000087010BDE03E00080701002001010020B7
:1004900010B5154C606A416821F003014160816824
:1004A00011F0800FFBD1E068018B228A1143018398
:1004B00002220E49204601F05DFF206B016841F0E9
:1004C00010010160D4E90F010143A06A8268114361
:1004D0008160D4E90F010143A06AC2681143C16081
:1004E00003490020087010BD943E00080701002059
:1004F000010100202DE9F0410446C16A3048002581
:100500004FF480680160616B41604021C0E90215D1
:10051000C0E90485CE028561C0E907560327C0E91A
:100520000957C562056300F015FA2648216B016082
:10053000616BC0E90115B111C560C0E90481C0E972
:100540000615C0E90865C0E90A75056300F002FAFE
:10055000E16A20204860E26A616CD160616AE26A07
:100560000C319160216B4860216BA06CC860606A9F
:10057000216B0C308860002294F93800114600F09D
:100580002FFC94F9380000F01FFC606A016841F00C
:1005900040010160206B016841F010010160D4E965
:1005A0000F010143A06A826811438160D4E90F0101
:1005B0000143A06AC2681143C160BDE8F081000038
:1005C000D00B0020200C0020074810B5017831B96D
:1005D00001210170054901F14C0000F065F9044961
:1005E0004FF40050086010BD01010020943E000847
:1005F000143C0140074810B5017831B90121017060
:100600000549A1F14C0000F04FF9044904200860AD
:1006100010BD000001010020E03E0008143C014034
:10062000DFF848C09CF80E08002808BF704730B4B7
:10063000BCF80A080E49202201EB0020BCF80C1877
:100640004FF6FF7400EB81100A490378803B04EAFF
:100650000323038031F8025B2B4320F8023B521E38
:10066000F3D100208CF80E0830BC704750CD00202C
:10067000500D0020100D0020114A1048B2F800184B
:100680004378B2F80228C1F1C800104423B1511ACE
:1006900000290CDD88B270470A49B1F80422B1F88C
:1006A0000012A2EB01010029F4DC03DA00E001DA18
:1006B00080B270474FF000007047000050010020EA
:1006C00050CD0020600501202DE9F0412D48002487
:1006D0002D4F4470254600BF07EB052606F1840028
:1006E0003E21FFF774FD06F1C4003E21FFF76FFDC8
:1006F00006F582703E21FFF76AFD6D1CC82DEBDB0D
:100700000021224A10204B1C491C53800729C8BFD6
:1007100000214B1C491C22F8043F0729C8BF0021B7
:10072000401EF0D11A490122A1F80028A1F806289C
:10073000A1F80228A1F80C28A1F80A2881F80E28AF
:10074000A1F80848A1F8044801F5016202EB801104
:10075000401C4C628C62CC620C864C638C63CC6314
:10076000A1F840404C648C64CC64A1F85040C82887
:10077000ECDB0848A0F80242A0F80042A0F80442CE
:10078000BDE8F08150010020500D00200E0D00202A
:1007900050CD0020600501200F48B0F80212B0F8DB
:1007A00000224B1C9BB2A0F80232042B0DD3002375
:1007B00002F1010C1FFA8CFCA0F80232A0F800C272
:1007C000BCF1C80F28BFA0F80032044800EB82102B
:1007D00000EB0110704700006005012060D500208B
:1007E0000749B1F80008421C92B2A1F80028C82AB3
:1007F00024BF0022A1F80028024901EB0020704725
:1008000050CD0020500D0020224B0021587878B3A5
:100810002148B0F80828A0F80C28B0F80428A0F85F
:100820000A28012280F80E28B0F80238A0F804380F
:10083000B0F80628A0F8082802F1010C1FFA8CFC79
:10084000A0F806C8BCF1040F0CD303F1010C1FFA89
:100850008CFCA0F80618A0F802C8BCF1C80F28BF8D
:10086000A0F802180D4800EB032000EB821070473F
:10087000FFE70B4AB2F80402D880431C9BB2A2F8EF
:100880000432C82B28BFA2F80412064901EB8010DD
:10089000704700005001002050CD0020500D002076
:1008A0006005012060D5002070B50D460446FFF7B5
:1008B000ABFF226BD06001222349284601F05AFD8C
:1008C00002222249284601F055FDE168204D606A68
:1008D0004A8B4FF0010C238A1A434A830021AA1E37
:1008E0005171CBB2E95CC160816811F0020FFBD09D
:1008F000816811F0010FFBD0816811F0800FFBD1EE
:10090000591CC9B251716145EBD3D4E90F010143C0
:10091000A06A826811438160D4E90F010143A06A93
:10092000C2681143C160206B016841F001010160A0
:10093000E06A016841F001010160606A416841F0CC
:100940000301416070BD000002010020070100208A
:1009500003010020002804BF0120704710B40221C9
:1009600080F83510026811681C4B1940D0E9013C31
:1009700043EA0C03D0E903C44CEA040C43EA0C0339
:10098000D0F814C043EA0C03D0F818C043EA0C03B3
:10099000D0F81CC043EA0C03D0F820C043EA0C0393
:1009A0001943436A042B04D1D0E90B3C43EA0C03FE
:1009B0001943116002685169436A21F00701194324
:1009C000042B04BF836A194351610021C1640121D2
:1009D00080F8351010BC0020704700003F8014F0F4
:1009E00031B500F0A1F9044600F09EF90099001B12
:1009F0008842F9D338BD00002DE9F04F354E002272
:100A00000F25371D4FF0010907F1040E09FA02FC0A
:100A100001EA0C03634558D1D0F800804FEA420A3E
:100A2000032404FA0AF428EA0408C0F800804FEA14
:100A3000D20800EB8808D8F820A04FEA427B4FEAA2
:100A4000DB6B05FA0BFB2AEA0B0AC8F820A0D0F8EA
:100A5000088028EA0408C0F80880D0F8048028EA52
:100A60000C0CC0F804C0D0F80CC02CEA040CC0F880
:100A70000CC022F0030404F1804404F598344FEADA
:100A8000827C4FEA1C7CD4F8088805FA0CFC28EA22
:100A90000C0CC4F808C8D6F800C02CEA030CC6F841
:100AA00000C0D7F800C02CEA030CC7F800C0DEF87D
:100AB00000C02CEA030CCEF800C0DFF81CC0DCF844
:100AC000004024EA0303CCF80030521C102A9DD3C6
:100AD000BDE8F08F003C01400C3C01402DE9F04F97
:100AE00000228C4EDFF830E201274FF0030A4FF06E
:100AF0000F0800BF0B6807FA02F42340A34240F03E
:100B00000281D1F804C0BCF1020F18BFBCF1120F72
:100B100015D14FEAD20C00EB8C05D5F820904FEAA6
:100B2000427C4FEADC6C08FA0CFB29EA0B09D1F88D
:100B300010B00BFA0CFC4CEA090CC5F820C0D0F838
:100B400000904FEA420C91F804B00AFA0CF50BF051
:100B5000030B29EA05090BFA0CFB4BEA0909C0F85B
:100B60000090D1F80490B9F1010F18BFB9F1020F4C
:100B700005D0B9F1110F18BFB9F1120F18D1D0F883
:100B80000890D1F80CB029EA05090BFA0CFB4BEAE6
:100B90000909C0F80890D0F8049029EA040491F8F3
:100BA0000490C9F3001909FA02F949EA04044460FF
:100BB000C468AC438D6805FA0CFC4CEA040CC0F820
:100BC0000CC0D1F804C01CF0805F7CD0D6F800C007
:100BD0004CF4804CC6F800C022F0030C0CF18044A9
:100BE00004F59834D4F808C895072D0F08FA05F9CC
:100BF0002CEA090CA0F18049B9F5003948D0A0F1E0
:100C00008049B9F5013908BF4FF0010940D0A0F182
:100C10008049B9F5023908BF4FF0020938D0A0F178
:100C20008049B9F5033908BF4FF0030930D0A0F16E
:100C30008049B9F5043908BF4FF0040928D0A0F164
:100C40008049B9F5053908BF4FF0050920D0A0F15A
:100C50008049B9F5063908BF4FF0060918D0A0F150
:100C60008049B9F5073908BF4FF0070910D0A0F146
:100C70008049B9F5083908BF4FF0080908D0A0F13C
:100C80008049B9F509390CBF4FF009094FF00A093D
:100C900009FA05F545EA0C0CC4F808C8DEF800C0EE
:100CA0004C682CEA030C14F4803F18BF4CEA030C88
:100CB000CEF800C0194CD4F800C04D682CEA030CE3
:100CC00015F4003F00E01EE018BF4CEA030CC4F826
:100CD00000C0134CD4F800C04D682CEA030C15F486
:100CE000801F18BF4CEA030CC4F800C00D4CD4F8A8
:100CF00000C04D682CEA030C15F4001F18BF4CEA25
:100D0000030CC4F800C0521C102AFFF4F3AEBDE877
:100D1000F08F000044380240003C0140043C014098
:100D2000083C01400C3C014001480068704700004D
:100D30006001002002480168491C01607047000002
:100D4000600100200B4810B5016841F4007101609A
:100D5000016841F480610160016841F480710160C3
:100D6000032000F06FF8002000F006F800F015F8FE
:100D7000002010BD003C024010B5044600F04EFEBD
:100D80004FF47A72B0FBF2F001F0CEF80022214667
:100D9000501E00F025F8002010BD10B5032000F013
:100DA00051F80022BDE810401146501E00F018B85E
:100DB00000F01F01012202FA01F14009800000F158
:100DC000E020C0F88011704700F01F01012202FAF4
:100DD00001F14009800000F1E020C0F800117047E7
:100DE000174B10B41B68C3F30223C3F1070CBCF10B
:100DF000040F88BF4FF0040C1C1D072C34BF0023C8
:100E0000DB1E012404FA0CFCACF1010C0CEA01011C
:100E1000994004FA03F35B1E1A40114300284FEA7D
:100E20000111A1BF00F1E02080F8001410BC704750
:100E300000F00F0000F1E02080F8141D10BC704796
:100E40000CED00E0074900F007000A684FF6FF03C9
:100E50001A4042EA002040F0FD7040F080600860D7
:100E6000704700000CED00E0006841620020704710
:100E700070B400680023D0F824C0002904BF4CEAF5
:100E80000241816218D0846A0CEB144C4C1E002C79
:100E9000C8BF4FF4827508DD05EB830686595B1CDD
:100EA000DBB20CEB164C9C42F6DC4FF4807303EB88
:100EB00081014CEA0242425070BC00207047D0F8D9
:100EC000AC0301F086BEC1EBC10200EB8202D0F898
:100ED000AC03D26B01F0FCBDC1EBC10200EB82029E
:100EE000D0F8AC03D2F8E02101F03EBED0F8AC035C
:100EF00001F071BE10B5044601F07F03C3EBC300DF
:100F00000A4611F0800F04EB800014BF00F130019D
:100F100000F5EA710B70D009487094F87803012845
:100F200004BF022010BD012084F87803206802F07D
:100F30001BFA002084F8780310BD70B504460A46F9
:100F400011F0800F01F07F0014BFC0EBC001C2EBB5
:100F5000C20104EB810114BF303101F5EA710025B3
:100F60008D700870D009487094F87803012804BF88
:100F7000022070BD012084F87803206802F0D5FBC0
:100F800084F87853002070BD70B504468C4611F08B
:100F9000800F01F07F00C0EBC00104EB810114BFA2
:100FA000303101F5EA7108705FEADC1C81F801C09C
:100FB0008A60CB7018BFC8800025022B08BF0D7156
:100FC00094F87803012804BF022070BD012084F842
:100FD0007803206802F008F9284684F8785370BD39
:100FE00070B504468C4601F07F00C0EBC00104EBF5
:100FF00081010025C1F8E021C1E97A3581F8D55198
:1010000081F8D401206901F5EA71012808BF0A615D
:1010100094F87803012804BF022070BD012084F8F1
:101020007803227C20681CF07F0F05D002F0E2FBE1
:1010300084F87853002070BD02F0ACFAF8E770B580
:1010400004460D4611F0800F01F07F0014BFC0EB85
:10105000C001C5EBC50104EB810114BF303101F5BE
:10106000EA7101228A700870E809487094F87803E0
:10107000012804BF022070BD84F87823206802F0A4
:1010800086FB15F07F0F05D1217C04F55F72206887
:1010900002F02CFB002084F8780370BD70B5044684
:1010A0008C4601F07F00C0EBC00104EB81010025FC
:1010B000CA63C1E91135012381F8313001F8300FDD
:1010C0002069012808BF0A6194F87803012804BF49
:1010D000022070BD84F87833227C20681CF07F0FDA
:1010E00006D002F087FB00BF84F87853002070BD63
:1010F00002F050FAF8E700002DE9F04F04460068CE
:1011000083B00546002602F0E6FC00281CBF03B0B1
:10111000BDE8F08F206802F007FD002804BF03B08F
:10112000BDE8F08F206802F0FFFC10F0020F02D043
:10113000216802204861206802F0F6FC10F4002FBC
:101140004FF0100A4FF0010B52D0206802F0CEFC95
:10115000070018BF4FF008094AD000BF17F0010F71
:1011600043D0F1B2206802F0D7FC804610F0010FA6
:101170002AD005EB4611C1F808BB2069012811D11E
:10118000C6EBC60004EB8000D1F8101BD0F8DC21C0
:10119000C1F31201511AC0F8EC11D0F8E01111445A
:1011A000C0F8E011F1B22046FFF796FE2069012851
:1011B00002BF002ED4F8E801002805D104F55F72C3
:1011C0000121206802F092FA18F0080F06D020469C
:1011D00000F0EBFA05EB4611C1F8089B18F0100F70
:1011E0001CBF05EB4610C0F808AB761C7F08B5D1D4
:1011F000206802F099FC10F4802F78D0206802F06B
:101200006EFC5FEA00094FF0000670D019F0010F84
:101210006ED0F1B2206802F070FC074610F0010FAA
:1012200028D00121D5F8342801FA06F022EA00007E
:10123000C5F8340805EB4610C0F8081920690128E4
:1012400007D1C6EBC60004EB8000D0E90E211144A3
:10125000C163F1B22046FFF736FE2069012802BFC4
:10126000002E606C002805D104F55F720121206812
:1012700002F03CFA17F0080F04D005EB46110820E5
:10128000C1F8080917F0100F04D005EB4611102023
:10129000C1F8080917F0400F04D005EB46114020B3
:1012A000C1F8080917F0020F04D005EB461102201F
:1012B000C1F8080917F0800F51D020680190C6EBE3
:1012C000C60004EB800000F13008D8E90501471A98
:1012D000D8F80800874288BF0746F81CC11700EB02
:1012E00091704FEAA00A019800EB461B20E03BE01A
:1012F00035E0471AD8F80800B84238BF0746F81C4E
:10130000C11700EB91704FEAA00A207C0090BBB29D
:10131000F2B2D8F80C10019802F0B4FCD8F80C0026
:101320003844C8F80C00D8F818003844C8F8180039
:10133000DBF8180980B2504584BFD8E9050188421E
:1013400001D90028D5D1002F09DC012101FA06F0CE
:101350000199D1F8341881430198C0F83418761CEB
:101360005FEA59097FF452AF206802F0DDFB10F00C
:10137000004F0CD0D5F8040820F00100C5F804088F
:10138000204600F0F8F921684FF0004048612068DD
:1013900002F0CAFB10F4006F0BD0D5F8080810F06B
:1013A000010F1CBF204600F034FA4FF400602168A2
:1013B0004861206802F0B8FB10F4805F5BD0D5F87C
:1013C000040820F00100C5F804080021206802F09C
:1013D00051FB6068D0B110F001004FF0FF011CBF5D
:1013E000C5F80819C5F8081B626882420ED900BF0B
:1013F00005EB4012C2F80819C2F8081BC2F82819F8
:10140000C2F8281B6268801C8242F1D84FF0FF307E
:10141000C5F81808D5F81C0840F00110C5F81C08DC
:10142000A06A60B1D5F8840840F00B00C5F88408C4
:10143000D5F8440840F00B00C5F844080BE0D5F897
:10144000140840F00B00C5F81408D5F8100840F057
:101450000B00C5F81008D5F8000820F4FE60C5F8A8
:101460000008217C04F55F72206802F03FF92168D2
:101470004FF480504861206802F056FB10F4005F82
:101480001BD0206801F0F8FE2068C16821F470517B
:10149000C160206802F002FB58B30320E0604020E6
:1014A00060612068C16841F4A051C160204600F02D
:1014B00051F921684FF400504861206802F034FB74
:1014C00010F0100F40D02068816921F01001816177
:1014D000D5F8208008F00F00C0EBC00004EB8000BE
:1014E00000F5EA77C8F3434002280BD006281BD04A
:1014F00025E00020E060402060612068C16841F480
:101500001051D2E747F6F07018EA000F17D0C8F371
:101510000A1290462846F96802F00AFBF86840442F
:10152000F860B869404409E0082204F55F71284674
:1015300002F0FEFAB869C8F30A110844B8612068DD
:10154000816941F010018161206802F0EDFA10F02C
:10155000080F05D0204600F012F9216808204861E4
:10156000206802F0E1FA10F4801F07D0F1B22046A3
:1015700000F037F821684FF480104861206802F0CD
:10158000D3FA10F4001F07D0F1B2204600F02DF876
:1015900020684FF400114161206802F0C5FA10F094
:1015A000804F06D02046FFF78AFC21684FF080402C
:1015B0004861206802F0B8FA10F0040F04BF03B0CD
:1015C000BDE8F08F2068456815F0040F1CBF204669
:1015D000FFF78CFC206841682943416003B0BDE8F7
:1015E000F08FD0F8AC0301F041BBD0F8AC0301F0B0
:1015F0003FBB2DE9F04188B004004FF0000502BF69
:10160000012008B0BDE8F081032084F8790320466A
:1016100000F054F8206801F0B7FF103494E8CF11BF
:101620008DE8CF11103C94E80F0001F03FFE00213F
:10163000206802F09AFA01260020C5EBC50104EBF0
:10164000810181F8316081F83050CD8681F8330016
:101650008863C8636D1C48640F2DEED300214FF4DE
:101660008273C1EBC10204EB820203EB810C82F8AE
:10167000D50182F8D411D18682F8D701C2F8DC01F5
:10168000C2F8E001C2F8E801226842F80C00491CE7
:101690000F29E6D304F1100090E8AF118DE8AF11E7
:1016A00094E80F0001F0B6FE84F87963206801F039
:1016B000A5FE08B00020BDE8F0810000F0B500688C
:1016C00085B0B0F1A04F1CBF05B0F0BD1D4801684A
:1016D00041F0010101604FF4C050009001AA0220C6
:1016E000002403250A2682E87100174F6946384610
:1016F000FFF7F4F97815CDE90004694638460294FD
:10170000FFF7ECF938150090122001900120CDE987
:101710000205694604963846FFF7E0F90B48016870
:1017200041F0800101600A48016841F48041016094
:10173000002203214320FFF753FB4320FFF744FB24
:1017400005B0F0BD3038024000000240343802409D
:101750004438024010B50446C0680121002808BF83
:101760000021D4F8AC0301F0C8FAD4F8AC03BDE80A
:10177000104001F090BAD0F8AC0301F0ABBAD0F849
:10178000AC0301F0ADBA10B5044690F87803012817
:1017900004BF022010BD012084F87803206802F005
:1017A000FBF9002084F8780310BDD0F8AC2300F5D5
:1017B0005F71104601F0ABBA10B5044690F878039B
:1017C000012804BF022010BD012084F8780320689E
:1017D00001F008FE206802F047F9002084F8780341
:1017E00010BD10B5044690F87803012804BF02200C
:1017F00010BD012084F87803206801F0C5FE206840
:1018000002F0DCF9206801F0F9FD002084F878038B
:1018100010BDD0F8AC0301F0BEBA00002DE9F047CE
:10182000DFF8EC8104468946D8F800007A4E00F0D3
:101830000F01784809F0FF0A41F28837494562D222
:1018400088F800A0D8F8001001F00F0149457DD1BB
:10185000217811F0020F05D03168A26821F0F00163
:1018600011433160217811F0010F4BD061680129DB
:1018700022D00068022924D010F0020F66D0306810
:1018800020F0030008433060FFF74EFA0546606819
:1018900001281AD00228306800F00C0025D000285A
:1018A00030D000BFFFF740FA401BB8425BD8306829
:1018B00010F00C0FF6D18FE0006810F4003FDED17D
:1018C00087E010F0007FDAD183E0306800F00C0090
:1018D000042817D0FFF728FA401BB84243D83068D5
:1018E00000F00C000428F5D176E0082874D000BF81
:1018F000FFF71AFA401BB84235D8306800F00C00E8
:101900000828F5D168E0217811F0020F05D0316880
:10191000A26821F0F00111433160217811F0010F2C
:101920004FD06168012921D00068022923D010F02E
:10193000020F4ED0306820F0030008433060FFF7FC
:10194000F3F905466068012819D000E041E002285B
:10195000306800F00C0022D000B300BFFFF7E4F9BC
:10196000401BB84229D90320BDE8F087006810F475
:10197000003FDFD12DE010F0007FDBD129E030689F
:1019800000F00C0004281CD0FFF7CEF9401BB84231
:10199000E9D8306800F00C000428F5D111E00828DF
:1019A0000FD000BFFFF7C0F9401BB842DBD830684A
:1019B00000F00C000828F5D103E0306810F00C0F9F
:1019C000CCD188F800A0D8F8000000F00F004845FE
:1019D00002D00120BDE8F087207810F0040F05D078
:1019E0003068E16820F4E05008433060207810F05F
:1019F000080F06D03068216920F4604040EAC10039
:101A000030600020FFF7B8F90020BDE8F087000043
:101A1000003C0240003802400838024030B42A4CF2
:101A2000206810F00C0129483ED04FEA600C0429D0
:101A300008BF604638D0082936D1254A116801F020
:101A40003F0311684FF4800595FAA5F501F4800174
:101A5000B5FA85F531FA05F547F6C0710BD0BCFB38
:101A6000F3F013680B4091FAA1F1B1FA81F123FA76
:101A700001F148430AE0B0FBF3F013680B4091FA20
:101A8000A1F1B1FA81F123FA01F1484311684FF451
:101A9000403292FAA2F201F44031B2FA82F2D1401D
:101AA000491C4900B0FBF1F02168F02292FAA2F241
:101AB00001F0F001B2FA82F2D140064A515CC8400E
:101AC0000549086030BC7047083802400024F40023
:101AD00004380240483F0008640100202DE9F05F0F
:101AE00004460078DFF89083E44D10F0010F4FF0CA
:101AF000000941F2883747D0D8F8000000F00C0008
:101B000004280AD0D8F8000000F00C0008280DD1F5
:101B1000281D006810F4800F08D0286810F4003FDA
:101B20001CBF606801282FD000F0A2B9DFF850A3D5
:101B30008AF80090FFF7F8F80646286810F4003F8E
:101B40000AD000BFFFF7F0F8801BB84200F22581F1
:101B5000286810F4003FF5D120798AF80000606809
:101B6000012825D0FFF7E0F80646286810F4003F6A
:101B70000AD000BFFFF7D8F8801BB84200F20D81F1
:101B8000286810F4003FF5D12078DFF8F8A210F0B3
:101B9000020F6CD0D8F800004FF0F80B10F00C0FCB
:101BA0002AD0D8F8000000F00C00082812D016E067
:101BB000FFF7BAF80646286810F4003FE4D100BFEA
:101BC000FFF7B2F8801BB8426FD8286810F4003FC6
:101BD000F6D0D9E7AC48006810F4800F0CD0E0686C
:101BE00090B30120CAF80000FFF79EF80646286867
:101BF00010F0020F13D01BE0286810F0020F1CBF7A
:101C0000E068012840F0348128689BFAABF120F0AD
:101C1000F8022069B1FA81F18840104312E0FFF721
:101C200083F8801B642840D8286810F0020FF6D093
:101C300028689BFAABF22169B2FA82F220F0F80030
:101C400091400843286012E0FFE7CAF80090FFF7D0
:101C50006BF80646286810F0020F08D0FFF764F80A
:101C6000801B642821D8286810F0020FF6D1207854
:101C700010F0080F2ED08548DFF814B26169A9B1C1
:101C800001210160FFF750F80646DBF8000010F074
:101C9000020F1FD1FFF748F8801B64287DD8DBF8BE
:101CA000000010F0020FF5D014E076E0C0F80090CC
:101CB000FFF73AF80646DBF8000010F0020F09D0F3
:101CC000FFF732F8801B642867D8DBF8000010F0BB
:101CD000020FF5D1207810F0040F45D06D4801684F
:101CE00041F0805101606C4E306840F4807030608B
:101CF000FFF71AF88346306810F4807F0AD100BFDE
:101D0000FFF712F8A0EB0B00642846D8306810F4F7
:101D1000807FF5D0614E86F80090FFF705F8834686
:101D2000306810F0020F09D0FEF7FEFFA0EB0B00A9
:101D3000B84232D8306810F0020FF5D1207A3070F6
:101D4000A06801282CD0FEF7EFFF8346306810F022
:101D5000020F09D0FEF7E8FFA0EB0B00B8421CD839
:101D6000306810F0020FF5D1A069E8B3D8F8001080
:101D700001F00C0108297BD00228CAF8609022D01B
:101D8000FEF7D2FF0446286810F0007F6DD000BF38
:101D9000FEF7CAFF001B642863D90320BDE8F09F4B
:101DA000FEF7C2FF8346306810F0020FDCD100BF9F
:101DB000FEF7BAFFA0EB0B00B842EED8306810F087
:101DC000020FF5D0D0E7FEF7AFFF0646286810F007
:101DD000007F08D0FEF7A8FF801B6428DDD82868A4
:101DE00010F0007FF6D100E03FE0D4E9070141EABE
:101DF000000247F6C07191FAA1F1606AB1FA81F16F
:101E00008840A16A4FF0FF3303EB51014FF4403398
:101E100093FAA3F3B3FA83F39940084310434FF0C6
:101E2000706292FAA2F2E16AB2FA82F29140084339
:101E300040F00051144801600120CAF86000FEF72C
:101E400073FF0446286810F0007F0ED1FEF76CFF88
:101E5000001B6428A1D8286810F0007FF6D004E0A9
:101E600006E0286810F0007F92D10020BDE8F09FC6
:101E70000120BDE8F09F0000083802400038024011
:101E8000023802400000474204380240800E4742B8
:101E90007438024040380240007000407038024000
:101EA000002804BF0120704710B5044690F8510087
:101EB000002804BF204600F035F8022084F85100C5
:101EC0002068016821F040010160D4E90101084364
:101ED000D4E903121143084361690843218B01F4DB
:101EE00000710843E1690843216A0843A16A084375
:101EF00021680860A069042101EA1040616A084372
:101F0000216848602168E06A08612068C16921F49D
:101F10000061C161002084F85200012084F8510062
:101F2000002010BD70477047411EB1F1807F24BF73
:101F3000012070474FF0E0204161054AF02182F80E
:101F4000141D0021816107210161002070470000FC
:101F50000FE000E010B5FFF7E6FF10BD002804BF5A
:101F60000120704710B5044690F83900002804BFDE
:101F7000204600F00CF8022084F83900211D20686A
:101F800000F0B6FA012084F83900002010BD704737
:101F90000028034801D000F036BF01F018B9000056
:101FA0009008002010B500220649074800F06AFD9D
:101FB0000649054800F013FFBDE8104004490248F7
:101FC00000F00EBCAC0000209008002004000020AF
:101FD000E00000202DE9F04F85B0FEF775FB884C3E
:101FE000A1882068FEF708FD21892068FEF704FD1E
:101FF000E1882068FEF700FD218AE068FEF7FCFC1E
:10200000218B6069FEF7F8FC218CE069FEF7F4FC97
:1020100004F14C05A9882868FEF7EEFC2989286898
:10202000FEF7EAFCE9882868FEF7E6FC298AE868FA
:10203000FEF7E2FC298B6869FEF7DEFC298CE86973
:10204000FEF7DAFC4FF002080027CDE90278CDF860
:10205000048094F823000490A088009069462068CA
:10206000FEF73CFDE088009069462068FEF736FDEB
:102070002089009069462068FEF730FD208A4FF0E5
:102080000109CDE900096946E068FEF727FDE0682F
:10209000008B218A0843E1680883208BCDE9000981
:1020A00069466069FEF71AFD6069408B218B084321
:1020B00061694883208CDFF84CA1CDE90278CDE935
:1020C000000A6946E069FEF709FD94F92200012241
:1020D0000021FEF785FE94F92200FEF775FE4A4EB8
:1020E000606A4FF0100BB76077613761306007208E
:1020F000C6E90A704FF40070F760B061C6E907B72F
:102100004FF48270776270603046FFF7C9FE606AF4
:102110000068616A20F0400008602046FEF7EAF996
:10212000204600F07FF8CDE90278CDF8048095F8DC
:1021300023000490A888009069462868FEF7CEFC2A
:10214000E888009069462868FEF7C8FC2889009056
:1021500069462868FEF7C2FC288ACDE9000969466D
:10216000E868FEF7BBFCE868008B298A0843E96849
:102170000883288BCDE9000969466869FEF7AEFC43
:102180006869408B298B084369694883288CCDE9AD
:10219000000ACDE902786946E869FEF79FFC95F9E7
:1021A000220001220021FEF71BFE95F92200FEF716
:1021B0000BFE686AB7607761376130600720C6E957
:1021C0000A704FF40070F760B061C6E907B74FF4CA
:1021D0008270776270603046FFF762FE686A00685E
:1021E000696A20F04000086004F14C00FEF782F9B3
:1021F00005B004F14C00BDE8F04F00F013B800004A
:10220000943E0008000021107C0B00200148FEF7DE
:1022100073BF0000E00400200148FEF76DBF00001E
:10222000E004002010B504464069418B228B114325
:10223000418302222049204600F09CF802221F49D7
:10224000204600F097F802221D49204600F092F83F
:1022500002221C49204600F08DF806221A49204629
:1022600000F088F806221949204600F083F802227F
:102270001749204600F07EF802221649204600F059
:1022800079F801221449204600F074F8012213491C
:10229000204600F06FF802221149204600F06AF84B
:1022A00002221049204600F065F86069018B228BFC
:1022B0001143018310BD0000090100200B01002023
:1022C0000D0100200F0100201D010020230100202E
:1022D000110100201301002004010020050100204D
:1022E000150100201701002070B5204C606980683E
:1022F00010F0800FFAD16069806810F0020F2DD0C5
:102300001B4890F800C0BCF1000F1DD0E168098B9C
:10231000228A1143E26811830269C16832F8023BE4
:1023200011F8025B03EB05239BB2C380C0E90312E3
:10233000E168498B228A1143E26851836169CB606D
:10234000ACF10101017009E0E068008B218A0843CB
:10235000E168088394F91800FEF72AFD6069806837
:10236000616920F08000886070BD00002C3F00088B
:102370002C01002030B4D0F80CC0436ABCF81A40DD
:10238000058A2C43ACF81A40164C4FF0000C002A7A
:1023900084F805C01FD900BF0CF0FF0511F805C077
:1023A000C3F80CC0D3F808C01CF0020FFAD000BF6D
:1023B000D3F808C01CF0010FFAD000BFD3F808C052
:1023C0001CF0800FFAD105F1010C0CF0FF0C84F821
:1023D00005C09445E0D3C1680A8B008A1043088386
:1023E00030BC70470101002010B5FEF7A3FCBDE82A
:1023F0001040FFF7AFBD00000F48016841F47001C5
:1024000001600E48016841F0010101600C4A0021A1
:102410001160026822F4102222F080720260031D13
:10242000084A1A60026822F48022026006480160AD
:10243000064958060860704788ED00E00038024001
:1024400008380240103000240C38024008ED00E04B
:1024500070B5234D2868016911F0010F1ABFC068DB
:1024600010F0010F70BDFEF707F91E4CA0B1FEF78A
:1024700093F91D498860086101F11400C8600820C3
:10248000087060694068616940F08000486094F9B4
:102490001800FEF799FC1BE0E1686069498B228A0D
:1024A0001143E268518311490988C160816811F0C4
:1024B000020FFBD0816811F0010FFBD0816811F091
:1024C000800FFBD1E068008B218A0843E168088314
:1024D00029686FF0010008612968086170BD00007B
:1024E000D40C00202C3F00082C010020700C002090
:1024F000F0B40268294B2A4C2A4D2B4EDFF8ACC0B1
:10250000984218BFB0F1804F07D0A04218BFA84230
:1025100003D0B04218BF604503D14F6822F070026B
:102520003A43984218BFB0F1804F25D0A04218BF5F
:10253000A84221D0B04218BF60451DD0A0F1804410
:10254000B4F5A0341CBFA0F18044B4F5A23413D07C
:10255000A0F18044B4F5A4341CBFA0F18044B4F5CC
:10256000C05409D0A0F18044B4F5E0541CBFA0F1E0
:102570008044B4F5005403D1CC6822F44072224365
:1025800002608A68C2620A688262984212BF60452D
:102590000969016301214161F0BC704700000140FD
:1025A0000004004000080040000C0040000401400E
:1025B00010B50446FEF760F80028FBD0FEF710F9CE
:1025C00002464FF480738121204600F0EDFB00208D
:1025D00010BD2DE9F041D0F81852064601292FD13F
:1025E00005F54054B4F80802A03080B2A4F80802FF
:1025F000B0F5485F10D10027A4F8087294F80402DF
:10260000032809D1D6F81C0201224FF4C85183686F
:10261000281D984784F8047294F80502002801BF29
:10262000B4F80802B0F5C85F012084F80502B4F8D8
:102630000802291D4218A0230121304600F024FB86
:102640000020BDE8F08110B50446012100F039FA00
:10265000D4F8180258B1D4F81C0241680020884709
:10266000D4F8180201F03EFB0020C4F81802002044
:1026700010BD10B5D0F8181201F5405494F80A12A4
:10268000012904BF94F84C1202290BD1D0F81C0286
:1026900094F80B12026908469047002084F80A0259
:1026A00084F84B02002010BD002070476421018097
:1026B000004870473C0000200A2101800048704714
:1026C000A00000202DE9F05F04464FF4A073012222
:1026D000812100F0CFFA43F2502001F0A5FBC4F8AD
:1026E0001802002804BF0220BDE8F09F002101600D
:1026F00000F54050032280F80422A0F80812A0F848
:10270000061280F805124FF48050430085005703ED
:10271000304A4FF4405C4FF4A0464FF4E0484FF489
:10272000004900BF4FEAE17A01EB5A7A2AF0070A22
:10273000A1EB0A0ABAF1080F3ED2DFE80AF0040B57
:10274000121920272E3501EBC10A0AEB011A00EB02
:102750008A0A2FE001EBC10A0AEB011A03EB8A0A8D
:1027600028E001EBC10A0AEB011A0CEB8A0A21E00E
:1027700001EBC10A0AEB011A05EB8A0A1AE001EB28
:10278000C10A0AEB011A06EB8A0A13E001EBC10A3F
:102790000AEB011A07EB8A0A0CE001EBC10A0AEB0B
:1027A000011A08EB8A0A05E001EBC10A0AEB011ADB
:1027B00009EB8A0A22F811A0491CB029B2DB4FF4B8
:1027C000B073044A8121204600F0EEFA0020BDE8F3
:1027D000F09F00008001002000207047002070471B
:1027E000002918BFC0F81C12002070470020704755
:1027F0002DE9F0410C4609780026D0F8185211F066
:10280000600124D0202930D1617843F20B230129C3
:102810000BD0812925D10746E81840210546FDF750
:10282000D6FCE288294638462CE0E288EAB1E9186D
:1028300000F058F805F54050012180F80A12A179FE
:1028400080F84B12A188090A80F84C120DE06178DB
:1028500006290DD00A2904BF2968012212D00B29AC
:1028600013D0214600F033F802263046BDE8F0814F
:1028700061882122B2EB112FF7D1E2880749092A9A
:1028800088BF092200F048F8EFE7A17801298ABF44
:102890002146296000F01BF8E7E700004E00002009
:1028A00010B5D0F8142252689047002010BD13468E
:1028B00010B50A46002100F0E7F9002010BD1346CC
:1028C00010B50A46002100F06FFA002010BD10B5C7
:1028D0000446802100F04AFA2046BDE8104000215D
:1028E00000F044BA10B50323C0F80821C0F8F43151
:1028F000C0F80C2113460A46002100F0C5F900205B
:1029000010BD10B505210023C0F8F4111A46194670
:1029100000F0BAF9002010BD10B502238261C0F8A2
:10292000F431C26113460A46002100F03DFA00204E
:1029300010BD10B504210023C0F8F4111A46194641
:1029400000F032FA002010BD10B50A46024903A07B
:1029500000F064F8004810BDE002002041554449F1
:102960004F20436F6E6669670000000012200880E8
:1029700000487047CC00002010B50A46024903A069
:1029800000F04CF8004810BDE002002041554449D9
:102990004F20496E7465726661636500042008808B
:1029A00000487047C800002010B50A46024903A03D
:1029B00000F034F8004810BDE002002053544D6987
:1029C00063726F656C656374726F6E696373000028
:1029D00010B50A46024903A000F020F8004810BDD7
:1029E000E0020020456C656374726F7068797369EA
:1029F0006F6C6F677900000010B50A46024903A0AA
:102A000000F00CF8004810BDE002002030303030FB
:102A100030303030303031410000000030B400251B
:102A2000002804BF30BC7047034604784FF0000C08
:102A300044B100BF13F8014F0CF1010C0CF0FF0C76
:102A4000002CF7D1022303EB4C0313804B556A1C77
:102A500003238B540378AA1C002B12BF002330BC25
:102A6000704700BF10F801CB01F802C0521CD2B26F
:102A70008B54521C90F800C0D2B2BCF1000FF1D1BF
:102A800030BC7047002804BF02207047D0F81432D1
:102A9000002B1CBF0023C0F81432002918BFC0F857
:102AA000101210B5012180F8FC11027000F09EF8A0
:102AB000002010BD10B5D0F82002FEF73EFA00202D
:102AC00010BD10B5D0F82002FEF714FA002010BD9A
:102AD00070B51346044659B1D4F814024269002A6D
:102AE00040D094F8FC01032804BF2046904739E009
:102AF000D4F8F411002504F1140002292CD1D0E9F6
:102B000002218A4207D9511A81608AB219462046A9
:102B1000FFF7D5FE20E04068B0FBF1F201FB1202A6
:102B20006AB988420BD3D4F8F811884207D2002240
:102B300011462046FFF7C3FEC4F8F8510CE0D4F864
:102B40001402C16829B194F8FC01032804BF20468F
:102B500088472046FFF7D5FE94F80002012808BFF9
:102B600084F80052002070BD70B51546044651B17E
:102B7000D4F81402826952B394F8FC01032804BF0C
:102B80002046904723E0D4F8F41104F5827003291D
:102B90001DD1D0E902C39C450CD9ACEB0303836083
:102BA000C068984298BF03469AB229462046FFF76C
:102BB0007EFE0CE0D4F81402016929B194F8FC01FE
:102BC000032804BF204688472046FFF7B2FE0020B6
:102BD00070BD0020704710B5012180F8FC11D0F8BD
:102BE0001422017952689047002010BD70B5054647
:102BF000007830BB144C4FF0A0400021206004202E
:102C000060600220C4E90301C4E905100120E1610C
:102C1000C4E90810A1622046E162FEF7EAFCC4F8AC
:102C2000AC5380212046C5F82042FEF71DF9402212
:102C300000212046FEF71CF9802201212046FEF7E4
:102C400017F9002070BD0000E004002011F0800F93
:102C500001F07F01D0F82002C1EBC10100EB81003F
:102C600014BF90F8320090F8D601704700207047EA
:102C70000020704710B59C461346D0F820026246EB
:102C8000FEF782F9002010BD10B5D0F82002FEF743
:102C9000A7F9002010BD70B500220446402311465C
:102CA000FFF7E8FF40252B46002280212046C4F88C
:102CB0001051FFF7DFFF0120256284F8FC01D4F8F2
:102CC000180228B1D4F814022179426820469047AE
:102CD000002070BD90F8FD1180F8FC1100207047B5
:102CE00010B590F8FC11032905D1D0F81412C96968
:102CF000002918BF8847002010BD017400207047CC
:102D000010B5D0F82002FEF73EFD002010BD10B532
:102D1000044600F5027000F04EF80120C4F8F401FA
:102D2000B4F80E02C4F8F80194F8080210F01F017C
:102D30000AD001290ED0022912D000F080012046CD
:102D400000F014F8002010BD04F50271204600F0D8
:102D50005FF8F7E704F50271204600F018FAF1E792
:102D600004F50271204600F09BF9EBE710B5D0F8AE
:102D70002002FEF764F9002010BD10B5D0F8200243
:102D8000FEF71AFD002010BD10B5D0F82002FEF7A6
:102D900028FD002010BD90F8FC1180F8FD110421E1
:102DA00080F8FC110020704710B5D0F82002FEF723
:102DB00075F9002010BD0A7802704A7842708A784E
:102DC000CB7802EB032242800A794B7902EB032293
:102DD00082808A79C97902EB0121C180704702465D
:102DE0000020002914BFC2F814120220704710B549
:102DF000D0F81422022422B112689047002808BF9C
:102E00000024204610BD10B5FFF7B7FF002010BD0D
:102E1000F8B50D46497800260A2980F0F180DFE8F0
:102E200001F0FAF9EFF8EF8505EFE3A404466888AE
:102E3000010A082980F0C380DFE801F0C1040C1EFC
:102E4000C1C1555FD4F81012207C0A6869469047CA
:102E500001465DE0207C0028D4F8140205D0C16A48
:102E6000684688470146022051E0816A68468847E3
:102E70000146022048704BE0C0B2062874D2DFE859
:102E800000F0030B131B232BD4F81012207C4A688C
:102E90006946904701463BE0D4F81012207C8A68CE
:102EA00069469047014633E0D4F81012207CCA6886
:102EB0006946904701462BE0D4F81012207C0A693D
:102EC00069469047014623E0D4F81012207C4A69F5
:102ED0006946904701461BE0D4F81012207C8A69AD
:102EE0006946904707E0207C002868D1D4F8140296
:102EF000416B6846884701460AE0207C00285ED185
:102F0000D4F81402016B68468847014607204870D0
:102F1000BDF8000000281CBFEA88002A57D0824272
:102F200088BF0246ADF8002020467AE00446A88813
:102F3000002804BFE888002841D1A87800F07F0568
:102F400094F8FC0103283AD084F8FE512946204623
:102F5000FFF7D6FE2046FFF7ECFC002D0CBF01204A
:102F6000022084F8FC0132E029E0A9784B4D0446A8
:102F70000129297023D894F8FC01022802D00328E3
:102F80000ED01CE041B10320616084F8FC012046B2
:102F9000FFF72DFF022812D02046FFF7CAFC16E0EB
:102FA000B9B160688842F7D0C1B22046FFF778FC1B
:102FB000297820466160FFF71AFF0228ECD18021B2
:102FC0002046FFF7D3FE00212046FFF7CFFE304614
:102FD000F8BD022084F8FC0120466160FFF760FC28
:102FE0002046FFF7A6FCF2E7E988012908D190F80E
:102FF000FC11022910D0032904BF0122011D10D0A9
:1030000004468021FFF7B2FE00212046FFF7AEFE06
:10301000DDE71BE02AE007E000218160012200F1EA
:103020000801FFF779FCD2E790F8FC11022918BFDC
:103030000329E5D10121C160D0F8041200291CBF89
:103040000321C160022200F10C01EAE7044668880E
:1030500029460128BBD1C4F80402D4F814028268BE
:10306000204690472046FFF764FCB0E7044690F8FE
:10307000FC012946022818BF0328A0D1488801284E
:10308000A5D10020C4F80402D4F8140282682046B6
:1030900090472046FFF74DFC99E700000000002014
:1030A00070B50D46044668780026097900283FD09F
:1030B00001281FD0032849D194F8FC01022802D02E
:1030C000032805D03AE0002918BF802943D13DE00C
:1030D000688828B900291EBF80292046FFF746FED0
:1030E000D4F8140229468268204690472046FFF70C
:1030F00020FC2BE094F8FC01022802D0032805D024
:103100001CE0002918BF802925D11FE06888E8B994
:1031100011F07F0F08D02046FFF7CCFCD4F8140242
:1031200029468268204690472046FFF702FC0DE0C2
:1031300094F8FC0102280BD0032810D080212046EF
:10314000FFF714FE00212046FFF710FE304670BD49
:1031500011F07F0FFAD02046FFF708FEF6E701F0E6
:103160007F0011F0800F04EB001014BF00F1140574
:1031700000F582752046FFF769FD002818BF012081
:103180000222286029462046FFF7C6FBDEE770B51D
:10319000044690F8FC010D4603280ED12879012839
:1031A0000BD8D4F81402826820469047E88800289B
:1031B00004BF2046FFF7BDFB07E080212046FFF754
:1031C000D5FD00212046FFF7D1FD002070BD10B5D0
:1031D00004460179D0F81402426820469047204600
:1031E000FFF7D2FD002010BD4B78012291F800C0FE
:1031F00002FA0CF2012BD0F81C380CD043EA024240
:10320000C0F81C280A7800EB4210D0F8002B12F40A
:10321000004F20D02CE092B21A43C0F81C280A7844
:1032200000EB4210D0F8003913F4004F20D1D0F851
:103230000039B1F808C0CCF30A0C43EA0C03C97892
:10324000890441EA8251194341F4004141F080511F
:10325000C0F800190CE0D0F8002B0B89C3F30A0367
:103260001A43C978034B43EA81411143C0F8001B5C
:103270000020704700800010D0F800196FF30A0199
:10328000C0F80019D0F8081801F00601042905D18A
:10329000D0F8001941F00301C0F80019D0F8041863
:1032A00041F48071C0F80418002070472D49DDF802
:1032B00000C0029B079A012B05D0C26842F0400271
:1032C000C26001232DE0836B23F480338363C368E2
:1032D00023F0400323F48403C360C36823F4401342
:1032E000C360012A03D1C26842F48012C260012285
:1032F00002E0521C8A4228D8036913F0004FF8D02C
:10330000026942F001020261012202E0521C8A427B
:103310001BD8036913F0010F17D0F7E75B1C8B4232
:1033200010D8026912F0004FF8D0026942F0010291
:103330000261012302E05B1C8B4203D8026912F098
:10334000010FF8D14FF480318163BCF1010F07D137
:10335000816841F00C018160816841F02001816049
:1033600000207047400D030091F801C001220B7846
:1033700002FA03F3BCF1010FD0F83CC818D02CEAD4
:103380000343C0F83C38D0F81C3891F800C002FA6A
:103390000CF223EA0242C0F81C28097800EB411025
:1033A000D0F8001B21F40041C0F8001B002070473A
:1033B0009BB22CEA0303C0F83C38D0F81C3891F8D3
:1033C00000C002FA0CF292B223EA0202C0F81C28F2
:1033D000097800EB4110D0F8001921F40041C0F841
:1033E0000019E3E710B5D0F8041821F00201C0F885
:1033F00004180320FDF7F4FA002010BD10B5D0F832
:10340000041841F00201C0F804180320FDF7E8FA9F
:10341000002010BD2DE9F003DDE908280B9F069E72
:10342000D0F838C04CF4002CC0F838C02FB9D0F810
:1034300038C04CF4001CC0F838C04FF0000CC0F885
:1034400000CED0F80048C0F80048012A0CD0D0F8CF
:10345000002842F00302C0F8002800BF4FF40872B1
:1034600002610123454A0BE0002BD0F8002818BF69
:1034700042F00102C0F80028F0E75B1C934203D839
:10348000046914F0200FF8D110230361012302E036
:103490005B1C934203D8046914F0100FF8D1C0F8F4
:1034A00010C8C0F814C84FF0FF32C0F81828C0F890
:1034B0001CC800224FF09045FF24002912D900BFFC
:1034C00000EB4213D3F8009919F0004F14BFC3F872
:1034D0000059C3F800C9C3F810C9C3F80849521C01
:1034E0009142EDD80022002912D900BF00EB42130F
:1034F000D3F8009B19F0004F14BFC3F8005BC3F86A
:1035000000CBC3F810CBC3F8084B521C9142EDD846
:10351000D0F8101821F48071C0F81018012E0CD1C9
:103520001749C0F83018D0F8301841F0030141F4C1
:103530008031C0F83018D0F83018C0F818C06FF0DB
:10354000804141611EB9816941F010018161816949
:103550000C4A11438161B8F1000F03D0816941F039
:1035600008018161012F05D1816941F0040141F019
:10357000804181610020BDE8F0037047400D0300E9
:103580000001800000383C80816821F001018160E9
:103590000020704710B491F801C00B7800EB431382
:1035A000BCF1010F2BD0D3F810CB6FF3120CC3F882
:1035B00010CB0B7800EB4313D3F810CB6FF3DC4C3C
:1035C000C3F810CB4B69002B1CBF8B684B610B7889
:1035D00000EB4313D3F810CB4CF4002CC3F810CB02
:1035E0000B7800EB4313D3F810CB8C68C4F31204B0
:1035F0004CEA040CC3F810CB012A6BD164E0D1F87B
:1036000014C0BCF1000FD3F810C941D06FF3120CF5
:10361000C3F810C90B7800EB4313D3F810C96FF34C
:10362000DC4CC3F810C9D1F814C08B689C4598BF16
:1036300063464B610B7800EB4313D3F810C94CF48D
:10364000002CC3F810C90B7800EB4313D3F810C952
:103650004C69C4F312044CEA040C00BFC3F810C94F
:10366000012A2AD04A694AB1D0F834280B784FF0A1
:10367000010C0CFA03F31A43C0F83428097800EB64
:103680004110D0F8001941F00441C0F800192AE0B7
:103690006FF3DC4CC3F810C90B7800EB4313D3F87D
:1036A00010C94CF4002CC3F810C90B7800EB43137D
:1036B000D3F810C96FF3120CD0E70B7800EB43136B
:1036C0000A69C3F81429D9E70B7800EB4313CA68D9
:1036D000C3F8142B097800EB4110D0F8001B41F01F
:1036E0000441C0F8001B002010BC70470023C0F844
:1036F000103BD0F8103B43F40023C0F8103BD0F847
:10370000103B43F01803C0F8103BD0F8103B43F0D7
:10371000C043C0F8103B012905D1C0F8142B4FF06D
:103720008021C0F8001B002070474B780A7800EB1E
:103730004212012B0BD0D2F8003B23F40013C2F845
:10374000003BCA78032A18BF022A15D01DE0D2F820
:10375000003923F40013C2F80039CA78032A18BFCD
:10376000022A12D1097800EB4110D0F8001941F07B
:103770008051C0F8001908E0097800EB4110D0F83A
:10378000001B41F08051C0F8001B002070474B78AF
:103790000A7800EB4212012B05D0D2F8003B13F05F
:1037A000004F15D01AE0D2F8003913F0004F05D1C0
:1037B000D2F8003923F08043C2F80039097800EBD1
:1037C0004110D0F8001941F40011C0F800190EE0C2
:1037D000D2F8003B23F08043C2F8003B097800EBAD
:1037E0004110D0F8001B41F40011C0F8001B00206C
:1037F0007047000030B44C786FF0604C0B7800EBF1
:103800004313012C32D0D3F8104B6FF31204C3F8DA
:10381000104B0B7800EB4313D3F8104B6FF3DC44E1
:10382000C3F8104B4B69002B7ED08C6823445B1E81
:10383000B3FBF4F39BB20C7800EB4414D4F8105BA8
:103840000CEAC34C45EA0C0CC4F810CB91F800C04C
:1038500000EB4C1CDCF8104B8D686B43C3F3120378
:103860002343CCF8103B012A7ED1D7E04C697CB3CE
:10387000D3F810496FF31204C3F810490B7800EB2A
:103880004313D3F810496FF3DC44C3F810494C6973
:103890008B681C44641EB4FBF3F30CEAC34C0B7836
:1038A00000EB4313D3F810494CEA040CC3F810C9D9
:1038B0000B7800EB4313D3F810C94C69C4F312041E
:1038C0004CEA040CC3F810C9CB78012B18D029E0BE
:1038D000FFE7D3F810C96FF3DC4CC3F810C90B78BD
:1038E00000EB4313D3F810C94CF4002CC3F810C9F3
:1038F0000B7800EB4313D3F810C96FF3120C0FE0F1
:103900000B7800EB4313D3F810C92CF0C04CC3F86C
:1039100010C90B7800EB4313D3F810C94CF0005CCE
:10392000C3F810C9012A00E062E021D0CB78012B56
:1039300026D04B696BB1D0F8343891F800C001241F
:1039400004FA0CFC43EA0C03C0F83438CB78012BA2
:1039500016D00B7800EB4313D3F800C94CF0044C9D
:10396000C3F800C9CB7800E05EE0012B68D118E015
:1039700091F800C000EB4C1C0B69CCF81439E5E75A
:10398000D0F8083813F4807F0B7800EB4313D3F89A
:1039900000C90CBF4CF0005C4CF0805CC3F800C95F
:1039A000D7E791F800C0CB68898A89B2FAB9C91CF7
:1039B0008A0845D012F0010106D053F8045B00EBF1
:1039C0000C3404F58054256091423CBF00EB0C3070
:1039D00000F5805034D200BF53F804CBC0F800C0CB
:1039E00053F804CBC0F800C0891C9142F4D327E0FF
:1039F0000B7800EB4313D3F810CB8C68C4F312049C
:103A00004CEA040CC3F810CB0B7800EB4313D3F84B
:103A100010CB4CF4002CC3F810CB24E70B7800EB50
:103A20004313CA68C3F8142BCA78012A0BD009784B
:103A300000EB4110D0F8001B41F00441C0F8001B1E
:103A4000002030BC7047D0F8082812F4807F0A7834
:103A500000EB4212D2F8003B14BF43F0805343F016
:103A60000053C2F8003BE2E7816841F00101816048
:103A7000002070470022202343EA411101610649DA
:103A8000521C8A4201D903207047036913F0200FAA
:103A9000F6D1002070470000400D03000021D0F84F
:103AA000082812F0060F14D0D0F8082802F00602F9
:103AB000022A0DD0D0F80828062333EA020207D0E4
:103AC000D0F8080800F00600042808BF022100E032
:103AD000032108467047406900F001007047D0F8A4
:103AE0001818D0F81C08084080B27047D0F8181891
:103AF000D0F81C080840000C7047D0F81028D0F807
:103B00003438CB4003F0010342EAC31200EB41100A
:103B1000D0F808091040704700EB4111D1F8081B9C
:103B2000D0F8140808407047416980690840704720
:103B30000346D01C820816D012F0010003F5805312
:103B400003D0D3F800C041F804CB90420BD200BFA1
:103B5000D3F800C041F804CBD3F800C041F804CB3F
:103B6000801C9042F4D30846704710B5C26822F01A
:103B7000C042C260012904BFC16841F0005105D0B4
:103B8000002904BFC16841F0804100D1C1603220EA
:103B9000FCF726FF002010BDD0F8002822F4FE62BA
:103BA000C0F80028D0F800284FF4FE6303EA0111A2
:103BB0001143C0F80018002070470000FF21C0F832
:103BC0000819C0F8081BC0F82819C0F8281BC0F84D
:103BD0004819C0F8481BC0F86819C0F8681BC0F83D
:103BE0008819C0F8881BC0F8A819C0F8A81BC0F82D
:103BF000C819C0F8C81BC0F8E819C0F8E81BC0F81D
:103C0000081AC0F8081CC0F8281AC0F8281CC0F808
:103C1000481AC0F8481CC0F8681AC0F8681CC0F8F8
:103C2000881AC0F8881CC0F8A81AC0F8A81CC0F8E8
:103C3000C81AC0F8C81C4FF0FF31C0F8181800218E
:103C4000C0F81018C0F81418C0F81C181021016131
:103C500001210B4A02E0491C914203D8036913F089
:103C6000100FF8D14FF408710161012102E0491CE5
:103C7000914203D8036913F0200FF8D10020704758
:103C8000400D0300DDF800C0BCF1000F19D1DB1CB2
:103C90005FEA930C15D01CF0010300EB023000F535
:103CA000805002D051F8042B0260634509D200BF56
:103CB00051F8042B026051F8042B02609B1C6345F1
:103CC000F6D30020704702E008C8121F08C1002A7E
:103CD000FAD170477047002001E001C1121F002A8D
:103CE000FBD1704710B5002821D0114B0022001FD6
:103CF000196803E0814203D80A4649680029F9D1CE
:103D000052B11368841A9C4204D1006818441060B0
:103D1000104602E0506000E0186039B102680B1AEA
:103D2000934203D10B681A4402604968416010BD98
:103D30007801002092B0FDF705F8374C206840F07C
:103D4000805020603548016821F4404141F4004131
:103D5000016001200090019002258005CDE9065008
:103D600006200890FC20CDE9090507200B90684645
:103D7000FDF7B4FE0D20CDE90C0500200E90A01437
:103D80000F90109004210CA8FDF748FD244801680D
:103D900041F080010160016841F0010101600168AA
:103DA00041F002010160016841F004010160016815
:103DB00041F008010160016841F010010160211D1E
:103DC0000A6842F480520A60216841F4804121600F
:103DD000216841F400412160016841F40011016053
:103DE000016841F480010160206840F0010020601A
:103DF000FCF756FAFEF7D6F80120FCF748FA002047
:103E0000FEF7C6F8FEF7E6F8064C2078012808BF52
:103E1000FCF706FCF9E70000403802400070004063
:103E20003038024000010020F0B50B30154D20F075
:103E300007010024144A0FE003688B420BD38B4226
:103E400005D95E1A43184768C3E9006700E0436874
:103E5000136002C004E0021D10680028ECD1204667
:103E6000002802D1286808B10020F0BD064A0748A2
:103E70001060074A121A22F00702C0E9002401204C
:103E80002860D7E77C010020780100206C08012021
:103E900068480120000402400800100020000000D3
:103EA000000C024040000000000C02401000000026
:103EB000000C02400400080500300140006402408C
:103EC0005864024040640240000000063A000000CE
:103ED0000000000800002000B40A0020D60A0020DC
:103EE0000004024000200040008000000004024066
:103EF0000008000000100240008000000010024096
:103F00000020280500380040006002407060024038
:103F100058600240000000000E0000002000000079
:103F200000000008180B00203A0B00200008024097
:103F30000004000800100000000C02400100060010
:103F4000003C0040330000000000000001020304B8
:103F50000102030406070809783F0008000000205A
:103F600080010000080200087C4000088001002059
:103F7000E8560100D63C00084113C5261B0847043B
:103F800013F1271B08A9081A730413B1251B08D3C2
:103F9000041AED141AD9041ADD041AAD1869041AAA
:103FA000B9041409026413020135C0320904230163
:103FB00001140924011B011E0B170C24020101022C
:103FC00042081C0924030D1112011B0904231916B0
:103FD0002909190119092C0724011B1A0B2E17088E
:103FE000021001204E2D0905810555111B072505DD
:103FF00021130A061928112A400D136D291B089D4B
:10400000041AA9041AD1041AF9041A49041A7904E1
:104010004F0403090412012C1D83043057441B0272
:1040200003351A6D851A63041A5F041A8B041A810A
:10403000041A87045A679D2115E261E2E114277092
:104040002130103120220123012502260E203327A2
:10405000700A2B2AE7013A300651120602110F2985
:1040600075120312041A051E1A070E01138B24F48D
:0C4070002E800802030406070809000067
:040000050800018965
:00000001FF
